:100000000C94FB0F0C9423100C9423100C942310CD
:100010000C9423100C9423100C9423100C94231094
:100020000C9423100C9423100C9423100C94231084
:100030000C9423100C9423100C9423100C94231074
:100040000C9406190C9423100C94D4180C94AE182C
:100050000C9423100C9423100C9423100C94231054
:100060000C9450190C942310000000002400270069
:100070002A0000000000250028002B0000000000DE
:1000800023002600290004040404040404040202DA
:100090000202020203030303030301020408102007
:1000A0004080010204081020010204081020000012
:1000B0000008000201000003040700000000000027
:1000C0000000080800000000000000000000000020
:1000D0005F000000000000030003000000247E24F5
:1000E000247E2400002E2A7F2A3A00000046261093
:1000F000086462000020544A5420500000000004AC
:10010000020000000000003C42000000000000422D
:100110003C00000000105438541000000010107C07
:10012000101000000000008060000000001010109F
:10013000101000000000006060000000004020106F
:10014000080400003C62524A463C000044427E40A3
:100150004000000064525252524C00002442424A75
:100160004A3400003028247E202000002E4A4A4ACB
:100170004A3200003C4A4A4A4A30000002026212F7
:100180000A060000344A4A4A4A3400000C525252CD
:10019000523C0000000000480000000000008064A5
:1001A000000000000000102844000000002828285B
:1001B000282800000000442810000000000402026B
:1001C000520A0400003C425A565A1C007C12121279
:1001D000127C00007E4A4A4A4A3400003C424242B5
:1001E000422400007E424242241800007E4A4A4ACD
:1001F0004A4200007E0A0A0A0A0200003C424252B9
:10020000523400007E080808087E00000042427E4A
:100210004242000030404040403E00007E0808144A
:10022000224000007E404040404000007E0408081C
:10023000047E00007E040810207E00003C42424202
:10024000423C00007E121212120C00003C4252622C
:10025000423C00007E121212324C0000244A4A4AEC
:100260004A3000000202027E020202003E4040408C
:10027000403E00001E204040201E00003E40202046
:10028000403E000042241818244200000204087076
:10029000080402004262524A4642000000007E42C8
:1002A000420000000004081020400000000042420C
:1002B0007E0000000008047E04080000808080802A
:1002C000808080003C4299A5A581423C0020545486
:1002D00054780000007E4848483000000000384450
:1002E0004444000000304848487E00000038545420
:1002F000544800000000007C0A0200000018A4A47A
:10030000A4A47C00007E08080870000000000048DB
:100310007A40000000004080807A0000007E1824AF
:10032000400000000000003E40400000007C0478D7
:1003300004780000007C0404047800000038444481
:100340004438000000FC2424241800000018242451
:1003500024FC800000007804040400000048545489
:10036000542000000000043E44400000003C404097
:10037000403C0000000C3040300C0000003C403895
:10038000403C00000044281028440000001CA0A0AD
:10039000A07C0000004464544C440000000808762F
:1003A000424200000000007E000000000042427651
:1003B0000808000000000402040200000000000021
:1003C000000000000000000000000000000000002D
:1003D000000000000000000000000000000000001D
:1003E000000000000000000000000000000000000D
:1003F00000000000000000000000000000000000FD
:1004000000000000000000000000000000000000EC
:1004100000000000000000000000000000000000DC
:1004200000000000000000000000000000000000CC
:1004300000000000000000000000000000000000BC
:1004400000000000000000000000000000000000AC
:10045000000000000000000000000000000000009C
:10046000000000000000000000000000000000008C
:10047000000000000000000000000000000000007C
:10048000000000000000000000000000000000006C
:10049000000000000000000000000000000000005C
:1004A000000000000000000000000000000000004C
:1004B000000000000000000000000000000000003C
:1004C000000000000000000000000000000000002C
:1004D000000000000000000000000000000000001C
:1004E000000000000000000000000000000000000C
:1004F00000000000000000000000000000000000FC
:1005000000000000000000000000000000000000EB
:1005100000000000000000000000000000000000DB
:1005200000000000000000000000000000000000CB
:1005300000000000000000000000000000000000BB
:1005400000000000000000000000000000000000AB
:10055000000000000000000000000000000000009B
:10056000000000000000000000000000000000008B
:10057000000000000000000000000000000000007B
:1005800000800000000000000000000000000000EB
:10059000000000000000000000000000000000005B
:1005A000000000000000000000000000000000004B
:1005B000000000000000000000000000000000003B
:1005C000000000000000000000000000000000002B
:1005D000000000000000000000000000000000001B
:1005E000000000000000000000000000000000000B
:1005F000000000000000000080C0C0E0F0F8FCFE39
:10060000FFFFFFFEFCF8F0E0C0C08000000000002B
:100610000000000000000000E0E0E0E0E0E0E0E0DA
:10062000E0E0E0E0E0E0E0E0E0E0E0E0E00000006A
:1006300000000000000000000000000000000000BA
:1006400000000000000000000000000000000000AA
:10065000000000000000000000000000000000009A
:10066000000000000000000000000000000000800A
:10067000C0C0E0F0F8FCFEFFFFFFFFFFFFFFFFFF41
:10068000FFFFFFFFFFFFFFFFFFFFFFFFFEFCF8F094
:10069000E0C0C08000000000FFFFFFFFFFFFFFFF82
:1006A000FFFFFFFFFFFFFFFFFFFFFFFFFF00000057
:1006B000000000000000000000000000000000003A
:1006C000000000000000000000000000000000002A
:1006D000000000000000000000000000000000001A
:1006E00000000000000080C0E0E0F0F8FCFEFFFF2A
:1006F000FFFFFFFFFFFFFFFFFFFFFFFFFFFFFFFF0A
:10070000FFFFFFFFFFFFFFFFFFFFFFFFFFFFFFFFF9
:10071000FFFFFFFFFFFEFCF8FFFFFFFFFFFFFFFFF4
:10072000FFFFFFFFFFFFFFFFFFFFFFFFFF000000D6
:1007300000000000000000000000000000000000B9
:1007400000000000000000000000000000000000A9
:100750000000000000000000000000000080C0E079
:10076000F0F0F8FCFEFFFFFFFFFFFFFFFFFFFFFFC2
:10077000FFFFFFFFFFFFFFFFFFFFFFFFFFFFFFFF89
:10078000FFFFFFFFFFFFFFFFFFFFFFFFFFFFFFFF79
:10079000FFFFFFFFFFFFFFFFFFFFFFFFFFFFFFFF69
:1007A000FFFFFFFFFFFFFFFFFFFFFFFFFF00000056
:1007B0000000000000000000000000000000000039
:1007C00000000000000000000000000000808080A9
:1007D000C0C0C0C0C0C0C0C0C0C0C0C0C0C0C0C019
:1007E000C0C0C0C0C0C0C0C0C0C0C0C0C0C0C0C009
:1007F000C0C0C0C0C0C0C0C0C0C0C0C0C0C0C0C0F9
:10080000C0C0C0C0C0C0C0C0C0C0C0C0C0C0C0C0E8
:10081000C0C0C0C0C0C0C0C0C0C0C0C0C0C0C0C0D8
:10082000C080800000000000000000000000000008
:1008300000000000000000000000000000000000B8
:1008400000000000000000E0F8FC0E0703010101B9
:100850000101818181818181818181818181818188
:100860008181818181818181818181818181818178
:100870008181818181818181818181818181818168
:1008800081818181818181818181818181010101D8
:100890000101010101010101010101010101010148
:1008A000010303063CF8F000000000000000000017
:1008B0000000000000000000000000000000000038
:1008C000000000000000FFFFFF000000000000FE2D
:1008D000FFFFFFFFFFFFFFFFFFFFFFFFFFFFFFFF28
:1008E000FFFFFFFFFFFFFFFFFFFFFFFFFFFFFFFF18
:1008F000FFFFFFFFFFFFFFFFFFFFFFFFFFFFFFFF08
:10090000FFFFFFFFFFFFFFFFFFFFFFFF00000000F3
:1009100000000000000000000000000000000000D7
:1009200000000000FFFFFF000000000000808000CA
:1009300000000000000000000000000000000000B7
:100940000000000000FFFFFF000000000000FFFFAC
:10095000FFFFFFFFFFFFFFFFFFFFFFFFFFFFFFFFA7
:10096000FFFFFFFFFFFFFFFFFFFFFFFFFFFFFFFF97
:10097000FFFFFFFFFFFFFFFFFFFFFFFFFFFFFFFF87
:10098000FFFFFFFFFFFFFFFFFFFFFF000000000072
:100990000000000000000000000000000000000057
:1009A000000000FFFFFF000000000000FFFFFFFE4F
:1009B000FCF8E00000000000000000000000000063
:1009C00000000000FFFFFF000000000000FFFFFF2D
:1009D000FFFFFFFFFFFFFFFFFFFFFFFFFFFFFFFF27
:1009E000FFFFFFFFFFFFFFFFFFFFFFFFFFFFFFFF17
:1009F000FFFFFFFFFFFFFFFFFFFFFFFFFFFFFFFF07
:100A0000FFFFFFFFFFFFFFFFFFFF000000000000F0
:100A100000000000000000000000000000000000D6
:100A20000000FFFFFF000000000000FFFFFF7F3F0E
:100A30001F07000000000000000000000000000090
:100A4000000000FFFFFF0000000000007FFFFFFF2D
:100A5000FFFFFFFFFFFFFFFFFFFFFFFFFFFFFFFFA6
:100A6000FFFFFFFFFFFFFFFFFFFFFFFFFFFFFFFF96
:100A7000FFFFFFFFFFFFFFFFFFFFFFFFFFFFFFFF86
:100A8000FFFFFFFFFFFFFFFFFF000000000000006F
:100A90000000000000000000000000000000000056
:100AA00000FFFFFF00000000000001010000000047
:100AB0000000000000000000000000000000000036
:100AC0000000071F3F70E0C08080808080818181AE
:100AD0008181818181818181818181818181818106
:100AE00081818181818181818181818181818181F6
:100AF00081818181818181818181818181818181E6
:100B000081818181818181818080808080808080DD
:100B1000808080808080808080808080C0C0603CB9
:100B20001F0F000000000000000000000000000097
:100B300000000000000000000000000000000000B5
:100B4000000000000000010103030303030303038B
:100B50000303030303030303030303030303030365
:100B60000303030303030303030303030303030355
:100B70000303030303030303030303030303030345
:100B80000303030303030303030303030303030335
:100B90000303030303030303030301010000000035
:100BA0000000000000000000000000000000000045
:100BB0000000000000000000000000000000000035
:100BC0000000000000000000000000000000000025
:100BD0000000000000000000000000000000000015
:100BE0000000000000000000000000000000000005
:100BF00000000000000000000000000000000000F5
:100C000000000000000000000000000000000000E4
:100C100000000000000000000000000000000000D4
:100C200000000000000000000000000000000000C4
:100C300000000000000000000000000000000000B4
:100C400000000000000000000000000000000000A4
:100C50000000000000000000000000000000000094
:100C60000000000000000000000000000000000084
:100C70000000000000000000000000000000000074
:100C80000000000000000000000000000000000064
:100C90000000000000000000000000000000000054
:100CA0000000000000000000000000000000000044
:100CB0000000000000000000000000000000000034
:100CC0000060606060606060606060606060606084
:100CD000606060606060606060606060FEFEFEFE9C
:100CE0001E1E3E3E767676E6E6E6C68686860606D4
:100CF0000606060606060606060606060606060694
:100D00000606060606060606060606060606060683
:100D10000606060606060606060606060606060673
:100D200006868686C6C6E6E6E676767E3E1EFEFE2B
:100D3000FEFEFEFC80C0C0C0C0C0C0C0C0C0C0C0FD
:100D4000C0C0C0C0C0C0C0C0C0C0C0C0C0C0C0C0A3
:100D5000C0C0C0800000000000000000FFFFFFFFD7
:100D6000000000000000000000010101030307076C
:100D70000E0E0E1C1C3838787070E0E0E0C0C080A9
:100D800080000000000000000000000000008080E3
:100D900080C0C0E0E070707038381C1C1E0E0E075A
:100DA0000707030301010000000000000000FFFF2F
:100DB000FFFFFFFF00000000000000000000000037
:100DC0000000000000000000000000000000000023
:100DD000000000000000000000000000FFFFFFFF17
:100DE0000000000000000000000000000000000003
:100DF00000000000000000000000000000010103EE
:100E0000030707070E0E0C1C1C0E0E0F070303032F
:100E100001010100000000000000000000000000CF
:100E20000000000000000000000000000000FFFFC4
:100E3000FFFFFFFF000000000000000000000000B6
:100E40000003030303030300000000030303030381
:100E50000303030303030303030303033F3F3F3F72
:100E60003030303030303030303030303030303082
:100E70003030303030303030303030303030303072
:100E80003030303030303030303030303030303062
:100E90003030303030303030303030303030303052
:100EA00030303030303030303030303030303F3F24
:100EB0003F3F3F1F00000000000000000000000056
:100EC0000000000000000000000000000000000022
:100ED0000000000000000000000000000000000012
:100EE0000000000000000000000000000000000002
:100EF00000000000000000000000000000000000F2
:100F000000000000000000000000000000000000E1
:100F100000000000000000000000000000000000D1
:100F200000000000000000000000000000000000C1
:100F300000000000000000000000000000000000B1
:100F400000000000000000000000000000000000A1
:100F50000000000000000000000000000000000091
:100F60000000000000000000000000000000000081
:100F70000000000000000000000000000000000071
:100F80000000000000000000000000000000000061
:100F90000000000000000000000000000000000051
:100FA0000000000000000000000000000000000041
:100FB0000000000000000000000000000000000031
:100FC0000000000000000000000000000000000021
:100FD0000000000000000000000000000000000011
:100FE0000000000000000000000000000000000001
:100FF0000080400000202000004040400080800031
:1010000000000000000000000000000000000000E0
:1010100000000000000000000000000000000000D0
:1010200000000000000000000000000000000000C0
:1010300000000000000000000000000000000000B0
:1010400000000000000000000000000000000000A0
:101050000000000000000000000000000000000090
:1010600000000000808040200000000000000050D0
:101070000C00000000000000000000000000200143
:10108000000004000030000000000000000000002C
:101090000000000000000000000000000000000050
:1010A0000000000000000000000000000000000040
:1010B0000000000000000000000000000000000030
:1010C0000000000000000000000000000000000020
:1010D0000000000000000000000080400000A07040
:1010E000101816815020304804020000000080EFE4
:1010F000004000400000008000000002000088D096
:10110000C0C0C1C080800000000080C0C0000000DE
:1011100000000000000000000000000000000000CF
:1011200000000000000000000000000000000000BF
:1011300000000000000000000000000000000000AF
:10114000000000000000000000000000000000009F
:1011500000000000000000F008010000C0080100CD
:1011600000D002010000000080300C0603C12010F6
:101170000808000800081000010302FEFFFF0F032B
:101180000101010307FFFFFCC0C0FFFFFF000000DB
:10119000000000000000000000000000000000004F
:1011A000000000000000000000000000000000003F
:1011B000000000000000000000000000000000002F
:1011C000000000000000000000000000000000001F
:1011D000000000000000001A800000000000000075
:1011E00000010000000000000220C080000A100082
:1011F00000F8FCFEFF000000000000FFFFFF000001
:101200000000000000FFFFFF0101010101000000DC
:1012100000000000000000000000000000000000CE
:1012200000000000000000000000000000000000BE
:1012300000000000000000000000000000000000AE
:10124000000000000000000000000000000000009E
:1012500000000000000000000308204000404000A3
:101260004000402020001010F8F8FC0100000000B1
:1012700000FFFFFFFF000000000000FFFFFF000075
:101280000000000000FFFFFF000000000000000061
:10129000000000000000000000000000000000004E
:1012A000000000000000000000000000000000003E
:1012B000000000000000000000000000000000002E
:1012C000000000000000000000000000000000001E
:1012D0000000000000000000000000000000C0E06E
:1012E000F000000000000000FFFFFF000000000011
:1012F00000FFFFFFFF000000000000FFFFFF0000F5
:101300000000000000FFFFFF0000000000000000E0
:1013100000000000000000000000000000000000CD
:1013200000000000000000000000000000000000BD
:1013300000000000000000000000000000000000AD
:10134000000000000000000000000000000000009D
:1013500000000000000000000000000000001F3F2F
:101360007F78F0E0E0E0F07C3F3F7F70F0E0E0E08D
:10137000F07F3F3F7FF0E0E0E0F0707F3F3F7CF0A8
:10138000E0E0E0F0787F3F0F000000000000000088
:10139000000000000000000000000000000000004D
:1013A000000000000000000000000000000000003D
:1013B000000000007060D030B0F0607080A090F04D
:1013C0002050C0507050102080C0103000F04020DD
:1013D000C000E0907040D020A090409090C050A0FD
:1013E000E070005070F0F020104070E0E0504000DD
:1013F000B0D060A00000000000000000000000006D
:1014000000000000000000000000000000000000DC
:1014100000000000000000000000000000000000CC
:10142000000000000000000060FCFEFE0C00000058
:10143000000070FCFEFE0C0000000000F8FCFEDE68
:10144000000000000000000000000000000000009C
:10145000000000000000000000000000000000008C
:10146000000000000000000000000000000000007C
:10147000000000000000000000000000000000006C
:10148000000000000000000000000000000000005C
:10149000000000000000000000000000000000004C
:1014A00000000000000000000001EFFFFF3C000012
:1014B000000000C3FFFFFF3C0000000000C3FFFF6F
:1014C0007F18000000000000000000000000000085
:1014D000000000000000000000000000000000000C
:1014E00000000000000000000000000000000000FC
:1014F00000000000000000000000000000000000EC
:1015000000000000000000000000000000000000DB
:1015100000000000000000000000000000000000CB
:101520000080C0E0E0E0E0E0E0C0C181C0E0E0E0D9
:10153000E0E0E0C08181C0E0E0E0E0E0E0C081C147
:10154000C0E0E0E0E0E0E0C080000000E0E0E000BB
:10155000000000000000000000000000000000008B
:10156000000000000000000000000000000000007B
:10157000000000000000000000000000000000006B
:10158000000000000000000000000000000000005B
:101590000000000000000000000000E0E0E0E0E0EB
:1015A000FFFFFF030100000101FFFFFFFF03010038
:1015B000000101FFFFFFFF010100000103FFFFFF2A
:1015C000FF010100000103FFFFFFE0E0FFFFFF005C
:1015D000000000000000000000000000000000000B
:1015E00000000000000000000000000000000000FB
:1015F00000000000000000000000000000000000EB
:1016000000000000000000000000000000000000DA
:1016100000000000000000000000000000000000CA
:10162000FFFFFF000000000000FFFFFFFF000000C1
:10163000000000FFFFFFFF000000000000FFFFFFB1
:10164000FF000000000000FFFFFF0000000000009E
:10165000000000000000000000000000000000008A
:10166000000000000000000000000000000000007A
:10167000000000000000000000000000000000006A
:10168000000000000000000000000000000000005A
:10169000000000000000000000000000000000004A
:1016A000FFFFFF000000000000FFFFFFFF00000041
:1016B000000000FFFFFFFF000000000000FFFFFF31
:1016C000FF000000000000FFFFFF0000000000001E
:1016D000000000000000000000000000000000000A
:1016E00000000000000000000000000000000000FA
:1016F00000000000000000000000000000000000EA
:1017000000000000000000000000000000000000D9
:1017100000000000000000000000000000000000C9
:10172000FFFFFF000000000000FFFFFFFF000000C0
:10173000000000FFFFFFFF000000000000FFFFFFB0
:10174000FF000000000000FFFFFF0000000000009D
:101750000000000000000000000000000000000089
:101760000000000000000000000000000000000079
:101770000000000000000000000000000000000069
:101780000000000000000000000000000000000059
:101790000000000000000000000000000000000049
:1017A0000F1F3F7C78707078787F7F7F7F7C7870A8
:1017B0007078787F7F7F7F78787070787C7F7F7F8C
:1017C0007F78787070787C3F1F0F00000000000069
:1017D0000000000000000000000000000000000009
:1017E00000000000000000000000000000000000F9
:1017F00000000000000000000000000000000000E9
:1018000000000000000000000000000000000000D8
:1018100000000000000000000000000000000000C8
:1018200000000000000000000000000000000000B8
:10183000000000C07018080C0C0C0C0808081810E8
:101840001030206040C080800000000000000000D8
:101850000000000000000000000000000000000088
:101860000000000000000000000000000000000078
:101870000000000000000000000000000000000068
:101880000000000000000000000000000000000058
:101890000000000000000000000000000000000048
:1018A0000000000080C060301018000080000000C0
:1018B00000F07E0300000000000000000000008037
:1018C000000018103060C08103060C78C0000000D2
:1018D0000000000000000000000000000000000008
:1018E00000000000000000000000000000000000F8
:1018F00000000000000000000000000000000000E8
:1019000000000000000000000000000000000000D7
:101910000000000000000000000080C0603010D80F
:10192000781C0E0B89E838181C3603010100008072
:10193000C07F706020202020604040C080000001F7
:101940000103060C1830E08103069CF0FF00000044
:101950000000000000000000000000000000000087
:101960000000000000000000000000000000000077
:101970000000000000000000000000000000000067
:101980000000000000000000000000000000000057
:1019900000000000000000F0FE07010000F81F0139
:1019A0000000F01E030000000000C0780C0601C11A
:1019B000E030180C0C04040C0C1830E0C101060CCB
:1019C00078C000000000180B3EF60300011FF8006D
:1019D0000000000000000000000000000000000007
:1019E00000000000000000000000000000000000F7
:1019F00000000000000000000000000000000000E7
:101A000000000000000000000000000000000000D6
:101A1000000000000000003FFC0000000003000088
:101A2000000003000000000000000F78C080000FDD
:101A30001C3060C0C08080C0C060301C0F0080C0FF
:101A4000780F081810302060C083000000000300E9
:101A50000000000000000000000000000000000086
:101A60000000000000000000000000000000000076
:101A70000000000000000000000000000000000066
:101A80000000000000000000000000000000000056
:101A90000000000000000000031E70C080808080F5
:101AA00080808080C0C0406020301018080D06067D
:101AB0000C080818101010101808080C0602010075
:101AC0000000000000000000000103060C1870C0B8
:101AD0000000000000000000000000000000000006
:101AE00000000000000000000000000000000000F6
:101AF00000000000000000000000000000000000E6
:101B000000000000000000000000000000000000D5
:101B100000000000000000000000000000010101C2
:101B20000100000000000000004040C086840C0856
:101B3000081E7ED01010101010101808080C848693
:101B4000C0404000000000000080C06030180E035C
:101B50000000000000000000000000000000000085
:101B60000000000000000000000000000000000075
:101B70000000000000000000000000000000000065
:101B80000000000000000000000000000000000055
:101B90000000000000000000000000000000000045
:101BA0000000000000000000000000000001010132
:101BB0000303020303060E1A1232232321212120DC
:101BC00020301018080C040603010000000000007B
:101BD0000000000000000000000000000000000005
:101BE00000000000000000000000000000000000F5
:101BF00000000000000000000000000000000000E5
:101C000000000000000000000000000000000000D4
:101C1000000000000000000E1B1D151E0C0C0C0C1B
:101C20001FF5FD1F0E000000000000000000000076
:101C300000000000000000000000000000000000A4
:101C4000000E0301030E0C0C0C0E1BF5F51F0C000F
:101C50000000000000000000000000000000000084
:101C60000000000000000000000000000000000074
:101C70000000000000000000000000000000000064
:101C80000000000000000000000000000000000054
:101C9000000000000000001E1AFFFF1E0C0C0C0CC0
:101CA0001E3F3F1E0C0000001E32FFF21E0000000F
:101CB0000000000000000000000000000000000024
:101CC000001E33FF331E0C0C0C0C1E3F3F1E0C007D
:101CD00000001EF2FF321E000000000000000000A5
:101CE00000000000000000000000000000000000F4
:101CF00000000000000000000000000000000000E4
:101D00000000000000001C3E2A2A3E1C0C0C0C3E69
:101D1000EAEA7E7E7E444444C60F0F0E0808989877
:101D20009EFAFAF6FCF8F8181C1603273C2020202F
:101D30001C362AEA7ED8981818BCEEFAB69C000029
:101D4000001C322F321E0000E0FCF6EAAA3E1C0CFA
:101D50000C0C1C373B263C0000001C36FAEEFCF84D
:101D60001818183EEAEA3E1C0000000000000000BF
:101D70000000000000000000000000000000000063
:101D80000000000000000000000000000000003C17
:101D9000777F3C3C00000000FF0000000000FF18BF
:101DA0003CFFFF3CFFFFFF00000000FEFCF8C808FE
:101DB0000E000040C0E1FB7F1CFFFF07070707FF85
:101DC000FF3C247E6E3C1818FFFF000001030E1C30
:101DD0003860FCAE3AB67C38180C020000FFFFFFFA
:101DE0000000183C2B3B3E1C0000000000000000DF
:101DF0000000000000000000000000000000386447
:101E0000DC643C0000000000000000000000003C1A
:101E1000F4DC7C3818181800FF0000000000FF18E0
:101E20007C575F7CFFFFFF80808080FF7C01070F75
:101E30003E78F0F0F0F1F2FC707FFFF07838381F58
:101E40001F3C645E643C0000FFFF0000586C3C6077
:101E5000E0C080C1E1787C040080808080FFFFFFCB
:101E60000000103CF4DE6C381818183C647E643CAA
:101E70000000000000000000000000000000384CDE
:101E8000774C78303030386C54547C303030307887
:101E9000D7D76C3800000000FFFCFCFE7E7F7F3847
:101EA0007CD4D47C3F1F0F0F3F0F070F38303030EA
:101EB000386C755D7D303030307CD7F76C38000081
:101EC00000784C744C78181819396DD4D47C1000F3
:101ED0000001394F776C38303031396D755D7931AB
:101EE0003030307CD7D77C38000000000000000084
:101EF00000000000000000000000000000000000E2
:101F00000000000000003078FCFC78303030307881
:101F1000CFFF487800000078CDFCCC7830303030EE
:101F200078FFFF7830000000000000000000000093
:101F30003078FCFC783030303078FFFF78300000AB
:101F40000078CCFC4C783030303078FFFF783000AF
:101F5000000000000000000000007858FCFC783011
:101F600030303078DFFF6C380000000000000000E7
:101F70000000000000000000000000000000000061
:101F80000000000000000000000000000000000051
:101F90000000000000000070DFBFA8780000000013
:101FA0000000000000000000000000000000000031
:101FB0000000000000000000000000000000000021
:101FC0000070CFBFE87800000000000000000000B3
:101FD0000000000000000000000000000000000001
:101FE00000000000000000000000000000000000F1
:101FF000000000006F1A11241FBECFEFD8E0DEBF33
:10200000CDBF23E0A4E0B2E001C01D92AB3AB2071D
:10201000E1F712E0A0E0B1E0E6E8F8E402C00590E4
:102020000D92A430B107D9F71FE0CBEFDFE004C079
:102030002197FE010E944922CA3FD107C9F70E9499
:10204000BD1A0C9441240C9400000895CF93DF93A3
:10205000AC01E0917802F09179023097F1F0909123
:102060007702809176029817C0F090E0292F30E037
:102070002617370754F4D901AB5FBD4F240F351F26
:10208000E90128812C939F5FF1CF10927702609332
:102090007602CB01DF91CF910994DF91CF91089522
:1020A000AF92BF92CF92DF92EF92FF920F931F9366
:1020B000CF93DF936C017B018B01040F151FEB01A4
:1020C0005E01AE18BF08C017D10759F06991D6015B
:1020D000ED91FC910190F081E02DC6010995892BCD
:1020E00079F7C501DF91CF911F910F91FF90EF908C
:1020F000DF90CF90BF90AF900895FC01538D448D39
:10210000252F30E0842F90E0821B930B541710F0A2
:10211000CF96089501970895FC01918D828D9817AF
:1021200061F0A28DAE0FBF2FB11D5D968C91928D87
:102130009F5F9F73928F90E008958FEF9FEF0895B8
:10214000FC01918D828D981731F0828DE80FF11D81
:10215000858D90E008958FEF9FEF0895FC01918D9C
:10216000228D892F90E0805C9F4F821B91098F7395
:102170009927089584EF92E00E94AE1021E0892B08
:1021800009F420E0822F089580E090E0892B29F067
:102190000E94BA1081110C9400000895FC01A48DD6
:1021A000A80FB92FB11DA35ABF4F2C91848D90E079
:1021B00001968F739927848FA689B7892C93A0895C
:1021C000B1898C91837080648C93938D848D9813E6
:1021D00006C00288F389E02D80818F7D8083089579
:1021E000EF92FF920F931F93CF93DF93EC0181E067
:1021F000888F9B8D8C8D98131AC0E889F98980810E
:1022000085FF15C09FB7F894EE89FF896083E88940
:10221000F98980818370806480839FBF81E090E032
:10222000DF91CF911F910F91FF90EF900895F62EBF
:102230000B8D10E00F5F1F4F0F731127E02E8C8D59
:102240008E110CC00FB607FCFACFE889F98980819E
:1022500085FFF5CFCE010E94CE10F1CFEB8DEC0FB4
:10226000FD2FF11DE35AFF4FF0829FB7F8940B8FBB
:10227000EA89FB8980818062CFCFCF93DF93EC0125
:10228000888D8823B9F0AA89BB89E889F9898C915E
:1022900085FD03C0808186FD0DC00FB607FCF7CF1A
:1022A0008C9185FFF2CF808185FFEDCFCE010E941A
:1022B000CE10E9CFDF91CF910895833081F028F4DB
:1022C000813099F08230A9F008958730A9F08830E4
:1022D000C9F08430B1F4809180008F7D03C080917B
:1022E00080008F7780938000089584B58F7784BDB8
:1022F000089584B58F7DFBCF8091B0008F77809358
:10230000B00008958091B0008F7DF9CFCF93DF9317
:10231000282F30E0F901E255FF4F8491F901E6568C
:10232000FF4FD491F901EA57FF4FC491CC23A1F09C
:1023300081110E945D11EC2FF0E0EE0FFF1FE458B9
:10234000FF4FA591B491EC91ED2381E090E009F469
:1023500080E0DF91CF91089580E090E0FACF1F9365
:10236000CF93DF93282F30E0F901E255FF4F84919E
:10237000F901E656FF4FD491F901EA57FF4FC49196
:10238000CC23A9F0162F81110E945D11EC2FF0E0F3
:10239000EE0FFF1FEE58FF4FA591B4918FB7F89441
:1023A000EC91111108C0D095DE23DC938FBFDF9133
:1023B000CF911F910895DE2BF8CFCF93DF9390E05C
:1023C000FC01E656FF4F24918A579F4FFC018491F0
:1023D0008823D1F090E0880F991FFC01E859FF4F46
:1023E000A591B491FC01EE58FF4FC591D4916111B4
:1023F0000EC09FB7F8948C91E22FE0958E238C93BA
:102400002881E223E8839FBFDF91CF9108958FB7A2
:10241000F894EC91E22BEC938FBFF6CF3FB7F89492
:1024200080916A0290916B02A0916C02B0916D0252
:1024300026B5A89B05C02F3F19F00196A11DB11D1F
:102440003FBFBA2FA92F982F8827BC01CD01620F5B
:10245000711D811D911D43E0660F771F881F991F15
:102460004A95D1F708958F929F92AF92BF92CF92E3
:10247000DF92EF92FF924B015C010E940E126B0102
:102480007C010E940E126C197D098E099F09683E1D
:10249000734081059105A8F321E0821A9108A108F3
:1024A000B10888EEC80E83E0D81EE11CF11C81142F
:1024B0009104A104B10429F7FF90EF90DF90CF9031
:1024C000BF90AF909F908F90089520914602260F65
:1024D0003327331F21323105ECF42091CA02FC016D
:1024E00090E080E0243069F082E00895A0914602F7
:1024F0002191AC014A5D5D4FA40FB52FB11D2C9306
:102500000196861798F380914602680F6093460201
:1025100080E0089581E008951092CA0281E08093DE
:10252000C9021092A40261E082E10E94AF1161E051
:1025300083E10E94AF11E9EBF0E080818E7F808320
:1025400080818D7F808380E28093B80085E48093D2
:10255000BC000895CF93DF9391E0909325028823E8
:10256000B9F0C091B800D091BA008091BC008A7BCC
:102570008093BC0060E082E10E94AF1160E083E1E3
:102580000E94AF110E948C12D093BA00C093B80081
:10259000DF91CF910895CF92DF92EF92FF920F9348
:1025A0001F93CF93DF93D091F30281E0D13208F0F3
:1025B0009CC0C091F2020E940E126B017C018091BE
:1025C000CA0281116CC082E08093CA0281E08093CC
:1025D000C9028FEF8093C8021092C702D093C6023F
:1025E000A2EDB2E0E6EAF2E080E0D8138DC01092EE
:1025F000A5028091A502CC0FC82BC093A5028091A3
:10260000A402813009F084C01092A4020E940E122C
:102610006B017C018091A5028093BB008091CC026C
:102620009091CD02A091CE02B091CF02892B8A2B3E
:102630008B2BA1F00E940E120091CC021091CD02C2
:102640002091CE023091CF026C197D098E099F092D
:10265000061717072807390708F442C08091BC0005
:1026600083FDD8CF85EC8093BC000E940E126B01D5
:102670007C018091CA02823009F44CC08091C8026A
:102680008F3F09F469C08091C802803209F466C0A6
:102690008091C802803309F463C084E026C0809131
:1026A000CC029091CD02A091CE02B091CF02892BA5
:1026B0008A2B8B2B09F483CF0E940E120091CC023F
:1026C0001091CD022091CE023091CF026C197D097C
:1026D0008E099F09061717072807390708F06FCFDB
:1026E0008091CB020E94AA1285E01092D102109232
:1026F000F3021092D002DF91CF911F910F91FF90C2
:10270000EF90DF90CF9008959D9191938F5F6DCF63
:1027100085EEA9CF8091CC029091CD02A091CE02FE
:10272000B091CF02892B8A2B8B2B09F4A2CF0E9468
:102730000E120091CC021091CD022091CE02309168
:10274000CF026C197D098E099F0906171707280704
:10275000390708F08ECFC4CF80E0C7CF82E0C5CF65
:1027600083E0C3CF0895E091770280917602E81765
:1027700030F4F0E0EB5FFD4F808190E008958FEF43
:102780009FEF089590917702809176022FEF3FEFAF
:10279000981748F4E92FF0E0EB5FFD4F208130E01F
:1027A0009F5F90937702C901089588E993E00E94A2
:1027B000C21321E0892B09F420E02093040281E078
:1027C00080939B0208958091760290917702891BF5
:1027D000990B0895CF92DF92EF92FF920F931F9380
:1027E000CF93DF937C01CB018A012091D002222379
:1027F00089F0EB016B01C40ED51ECC15DD0569F027
:102800006991D701ED91FC910190F081E02DC70114
:102810000995F3CF642F0E946512C801DF91CF9113
:102820001F910F91FF90EF90DF90CF900895CF937D
:10283000DF931F92CDB7DEB769832091D0022223A8
:10284000F9F02091F302203258F021E030E0FC0151
:102850003383228390E080E00F90DF91CF91089541
:102860008091D102E82FF0E0EE52FD4F99819083E4
:102870008F5F8093D1028093F30281E090E0ECCFF0
:1028800061E0CE0101960E946512F7CFCF93C82F69
:1028900081E08093D0028CE38093F2021092D10207
:1028A0001092F30260E888E993E00E9417146C2FFD
:1028B00088E993E00E941714CF910C94CB128055B5
:1028C0000E94461480E00E94461480E10C94461455
:1028D000CF93C82F81E08093D0028CE38093F202E3
:1028E0001092D1021092F30260E488E993E00E9412
:1028F00017146C2F88E993E00E941714CF910C9461
:10290000CB121F93CF93DF932091920330919303C7
:10291000232B29F480E0DF91CF911F91089590EE51
:10292000980F903608F080E210E0282F2052330BE9
:10293000E901909195031917C0F49C9F90019D9F08
:10294000300D1124E0919403E20FF32FF11DCF011C
:10295000810F911DE0919203F0919303E80FF91F0D
:1029600084910E9468141F5FE4CFD5CFCF93DF938B
:102970008EEA0E944614C0E08C2F0E945F14D0E1C2
:1029800080E20E948114D150D9F7CF5FC830A1F7FF
:102990008FEA0E94461480E0DF91CF910C945F147F
:1029A0000F931F93CF938C01C0E0F801EC0FF11D42
:1029B0008081882321F00E948114CF5FF6CFCF91D0
:1029C0001F910F910895EF92FF921F93CF93DF9382
:1029D0007C0110919103123049F082E080939103C1
:1029E00080E20E94461480E00E944614D0E0C0E0DD
:1029F000F701EC0FFD1F84910E9468142196C11508
:102A000084E0D807A9F7113069F41093910380E2AC
:102A10000E94461482E0DF91CF911F91FF90EF90CA
:102A20000C944614DF91CF911F91FF90EF90089581
:102A300090E080E008958F929F92AF92BF92CF92E4
:102A4000DF92EF92FF920F931F93CF93DF938FB795
:102A5000F89440916E0250916F02609170027091F3
:102A600071028FBF60E082E00E94AF1161E082E0FE
:102A70000E94DD1162E170E080E090E00E9433127C
:102A800060E082E00E94DD1161E082E00E94AF110F
:102A90000DEFD0E0C0E0A12CB12C10E0F12C0E9491
:102AA0000E12862E802F8170982EC82E880FDD087A
:102AB0000E940E12E62EE8188AE58E1500F182E0DB
:102AC0000E9486118C159D0599F307FD0CC0992075
:102AD00031F0CC0FDD1F8EE18E1508F4C1600F318F
:102AE000D9F00F33E1F00F34E9F41A0D1F0D1B0D6F
:102AF0001C171D0621F4F0929D02B0929C02DF91FA
:102B0000CF911F910F91FF90EF90DF90CF90BF90EA
:102B1000AF909F908F9008959C2F8D2F07C05E01DE
:102B2000D0E0C0E09C2F8D2FC12FDF2D0F5F1C2F19
:102B3000FD2EC92FD82FB3CFFC0101900020E9F75B
:102B40003197AF01481B590BBC0184EF92E00C9404
:102B50005010CF93DF93FC014481558160817181D6
:102B600084EF92E00E945010EC018AE291E00E9412
:102B70009C158C0F9D1FDF91CF9108958F929F928E
:102B8000AF92BF920F931F93CF93DF93CDB7DEB772
:102B9000A1970FB6F894DEBF0FBECDBF19A2423089
:102BA00008F44AE08E010F5D1F4F842E912CB12C4A
:102BB000A12CA50194010E942722E62FB901CA0188
:102BC000EA30F4F4E05DD801EE938D01232B242B41
:102BD000252B79F790E080E0109719F0CD010E9445
:102BE0009C15A1960FB6F894DEBF0FBECDBFDF9146
:102BF000CF911F910F91BF90AF909F908F900895AC
:102C0000E95CE1CFCF93DF930E949C15EC018AE24F
:102C100091E00E949C158C0F9D1FDF91CF9108952C
:102C2000FC0180819181009711F00C94EB220895B2
:102C30000F931F93CF93DF93EC01888199810097C5
:102C400059F02A813B812617370730F081E0DF9168
:102C5000CF911F910F9108958B016F5F7F4F0E945D
:102C60007423009759F0998388831B830A832C81EE
:102C70003D81232B59F7FC011082E8CF80E0E7CF9C
:102C8000EF92FF920F931F93CF93DF93EC01FB0121
:102C9000E080F180E114F10411F104811581011546
:102CA0001105A9F08C819D81080F191FB801CE0173
:102CB0000E941816882399F0288139818C819D8182
:102CC000B701820F931F0E943A241D830C83CE010B
:102CD000DF91CF911F910F91FF90EF900895888120
:102CE0009981009711F00E94EB22198218821D82AF
:102CF0001C821B821A82EBCFEF92FF920F931F93DD
:102D0000CF93DF93EC017B018A01BA010E94181670
:102D100028813981811114C02115310519F0C901AB
:102D20000E94EB22198218821D821C821B821A8249
:102D3000CE01DF91CF911F910F91FF90EF900895F9
:102D40001D830C83B701C9010E943A24F1CFEF9291
:102D5000FF920F931F93CF93DF93CDB7DEB76297A8
:102D60000FB6F894DEBF0FBECDBF8C01CB01F801CA
:102D70001182108213821282158214824AE09E010F
:102D80002F5F3F4F7901B9010E94AA20F7010190FE
:102D90000020E9F73197AF014E195F09B701C8016B
:102DA0000E947C1662960FB6F894DEBF0FBECDBFB0
:102DB000DF91CF911F910F91FF90EF900895FC014B
:102DC000118210821382128215821482FB010190FB
:102DD0000020E9F73197AF01461B570B0C947C1686
:102DE000CF92DF92EF92FF920F931F93CF93DF93D7
:102DF000CDB7DEB7A4970FB6F894DEBF0FBECDBF38
:102E000085E00E948611BC01CE010D960E94A71696
:102E10006DE271E0CE0101960E94DF1618861F82D6
:102E20001A8619861C861B8669817A81CE010796CF
:102E30007C016115710521F04D815E810E947C1637
:102E4000BE01635F7F4FC7010E9440160E94A91513
:102E5000C7010E941016CE0101960E941016CE01E5
:102E60000D960E9410160E941B156CE271E0CE01B7
:102E700043960E94DF166CE271E0CE0149960E94F3
:102E8000DF166CE271E0CE014F960E94DF168EE0F5
:102E90000E9486116C0190919D028091A403891774
:102EA00008F5C114D104F1F486E00E948611892B43
:102EB00041F461E086E00E94AF118AE391E00E9454
:102EC000021685E00E948611892B41F461E085E0BD
:102ED0000E94AF1181E491E00E94021605E010E02B
:102EE00081E003C010E000E080E020919C0290911E
:102EF000A503291708F0DDC081110FC086E00E94EC
:102F00008611892B41F461E086E00E94AF118AE3CB
:102F100091E00E94021601E010E0809104028823F3
:102F200011F004E010E0C114D10451F060E086E03B
:102F30000E94AF1160E085E00E94AF1106E010E052
:102F400080E591E00E949C1560919D0270E090E008
:102F500080E04AE00E94BE1584E591E00E949C1545
:102F600087E591E00E949C1560919C0270E090E0E2
:102F700080E04AE00E94BE1589EC91E00E940216B2
:102F800085E00E948611BC01CE010D960E94A71615
:102F90006DE271E0CE0101960E94DF1618861F8255
:102FA0001A8619861C861B8669817A8161157105CE
:102FB00029F04D815E81C7010E947C16BE01635FCE
:102FC0007F4FC7010E9440160E94A915C7010E94A9
:102FD0001016CE0101960E941016CE010D960E9489
:102FE000101680919B02882381F186E00E94861151
:102FF000898385E00E9486118A8381E0CD2809F4C7
:1030000080E08B8380919C028C8380919D028D83D4
:1030100081E08E838093D0021092F2021092D1024E
:103020001092F3028E010F5F1F4FF80161918F0123
:1030300088E993E00E9417140E151F05B1F70E944E
:10304000CB1210929B0203E010E086E00E948611F2
:10305000892B31F08EE00E94861161E0892B09F006
:1030600060E084E00E94AF1185E00E948611892B08
:1030700091F560E083E00E94AF11CE014F960E946F
:103080001016CE0149960E941016CE0143960E945A
:103090001016C801A4960FB6F894DEBF0FBECDBFC0
:1030A000DF91CF911F910F91FF90EF90DF90CF9024
:1030B0000895811132CF86E00E948611019741F474
:1030C00060E086E00E94AF1188E491E00E94021661
:1030D00010E000E022CF8EE00E948611892B49F695
:1030E00061E0C8CF85ED8093BC008091CC029091C7
:1030F000CD02A091CE02B091CF020796A11DB11DC5
:1031000023E0B695A795979587952A95D1F72091B5
:10311000BC0024FD03C01092CA0208954091CC0265
:103120005091CD026091CE027091CF02452B462B7B
:10313000472B69F30097A105B10541F02AE12A95D3
:10314000F1F700C00197A109B109E1CF8091CB024D
:103150000C94AA120C94E2210C94DA211F920F9283
:103160000FB60F9211242F933F934F935F936F935A
:103170007F938F939F93AF93BF93EF93FF9384EFCE
:1031800092E00E94CE10FF91EF91BF91AF919F917D
:103190008F917F916F915F914F913F912F910F9000
:1031A0000FBE0F901F9018951F920F920FB60F929F
:1031B00011242F938F939F93EF93FF93E091040338
:1031C000F09105038081E0910A03F0910B0382FDE9
:1031D0001BC0908180910D038F5F8F7320910E0330
:1031E000821741F0E0910D03F0E0EC50FD4F958F18
:1031F00080930D03FF91EF919F918F912F910F90ED
:103200000FBE0F901F9018958081F4CF1F920F92E0
:103210000FB60F9211242F933F938F939F93AF93E9
:10322000BF9380916E0290916F02A0917002B09155
:1032300071023091690226E0230F2D3758F502966E
:10324000A11DB11D2093690280936E0290936F02BD
:10325000A0937002B093710280916A0290916B0208
:10326000A0916C02B0916D020196A11DB11D8093D9
:103270006A0290936B02A0936C02B0936D02BF91AF
:10328000AF919F918F913F912F910F900FBE0F9013
:103290001F90189529E8230F0396A11DB11DD2CFC9
:1032A0001F920F920FB60F9211242F933F934F93BB
:1032B0005F936F937F938F939F93AF93BF93EF939E
:1032C000FF938091B900887F803609F44AC0F0F5F9
:1032D000883209F4A7C018F5803109F49BC0B8F40E
:1032E000882309F4F9C0883009F494C0FF91EF9164
:1032F000BF91AF919F918F917F916F915F914F910E
:103300003F912F910F900FBE0F901F90189588310D
:1033100009F488C0803251F78093C80214C0803409
:1033200009F49DC040F48033B9F38833F9F68093F3
:10333000C80285ECB0C0803509F485C0883509F431
:1033400096C0883499F60E947218D0CF883909F453
:103350008CC038F5883729F050F4883611F0803762
:1033600029F683E08093CA021092680257C0883819
:1033700009F47BC0803919F0803809F0B7CF80910B
:103380006802803208F071C0E091680281E08E0F1F
:10339000809368028091BB00F0E0E85BFD4F808382
:1033A0003DC0803B39F0E0F4803A09F479C0883AB6
:1033B00009F09CCF84E08093CA02109247021092D9
:1033C0004602E0917402F0917502099580914602DF
:1033D00081110FC081E0809346021092260209C03D
:1033E000803C09F4A6CF883C09F4A3CF883B09F0C0
:1033F0007DCFE091470281E08E0F80934702F0E09D
:10340000EA5DFD4F80818093BB00909147028091DF
:10341000460229C08091A5028093BB0085EC809371
:10342000BC0064CF9091C7028091C602981758F5EE
:10343000E091C70281E08E0F8093C702F0E0EA5569
:10344000FD4F8081E9CFE091C70281E08E0F80932C
:10345000C7028091BB00F0E0EA55FD4F8083909158
:10346000C7028091C6029817C8F285E8D8CFE091CC
:10347000C70281E08E0F8093C7028091BB00F0E00D
:10348000EA55FD4F80838091C90281115CCF81E0B4
:103490008093A40284EA8093BC001092CA0226CFD3
:1034A00085EC8093BC001092CA0280916802803241
:1034B00030F4E0916802F0E0E85BFD4F108260912B
:1034C000680270E0E0917202F091730288E492E089
:1034D0000995109268020ACF1092C80234CFE4EF27
:1034E000F2E01382128288EE93E0A0E0B0E08483E1
:1034F0009583A683B7832AE031E03183208325ECCE
:1035000030E03587248724EC30E03787268720ECAD
:1035100030E0318B208B21EC30E0338B228B22EC9E
:1035200030E0358B248B26EC30E0378B268B118EE8
:10353000128E138E148E22E020939403E8E9F3E0B8
:103540001382128284839583A683B7838CE191E0F2
:103550009183808390E080E00E94AC188093A60362
:1035600081E090E00E94AC188093A50382E090E097
:103570000E94AC188093A4030895789484B5826067
:1035800084BD84B5816084BD85B5826085BD85B507
:10359000816085BD80916E00816080936E00109285
:1035A0008100809181008260809381008091810000
:1035B0008160809381008091800081608093800091
:1035C0008091B10084608093B1008091B0008160EF
:1035D0008093B00080917A00846080937A0080911B
:1035E0007A00826080937A0080917A008E7F809347
:1035F0007A0080917A00806880937A001092C100EE
:1036000060E080E10E94DD1160E08FE00E94DD114A
:1036100060E081E10E94DD1161E086E00E94DD1141
:1036200061E085E00E94DD1160E08EE00E94DD1126
:1036300061E084E00E94DD1161E083E00E94DD1121
:10364000E0910403F091050392E09083E091000380
:10365000F09101031082E0910203F091030387E6E9
:10366000808310920C03E0910803F091090386E037
:103670008083E0910603F09107038081806180835D
:10368000E0910603F0910703808188608083E091D8
:103690000603F0910703808180688083E091060330
:1036A000F091070380818F7D808390938202109236
:1036B0008402109283022FB7F89480916E02909149
:1036C0006F02A0917002B09171022FBF885B9B4086
:1036D000A109B1098093870290938802A09389027F
:1036E000B0938A0282E090E09093840280938302F8
:1036F0002FB7F89480916E0290916F02A0917002A2
:10370000B09171022FBF4091870250918802609161
:10371000890270918A028C019D01041B150B260BF6
:10372000370B40918302509184024130510509F0DA
:103730004CC147EE53E060E070E004171507260720
:10374000370708F45FC08093870290938802A093A4
:103750008902B0938A0280E090E0A0ECBFE78093FA
:103760007A0290937B02A0937C02B0937D028093B7
:103770007E0290937F02A0938002B093810260E06A
:10378000809182020E94AF1161E0809182020E94CA
:10379000DD118091830290918402019709F01AC192
:1037A00062E170E080E090E00E94331260E080917E
:1037B00082020E94DD1161E0809182020E94AF11BD
:1037C0007EEFD72ED0E0C0E0F12CE12C10E000E03D
:1037D000CC24CA94CD0C0E940E12762E8C2D8170B2
:1037E000882EA82E880FBB080E940E12962E9718BE
:1037F0008AE5891508F0F6C081E090E09093860292
:103800008093850280918502909186028130910596
:1038100021F4909384028093830210927702109295
:1038200076021092D1021092F3020E948C1285E26D
:1038300090E1909375028093740286E290E19093F8
:1038400073028093720282E08093BA0085ED93E167
:1038500090937902809378028EEA0E94461486EA59
:103860000E9446148EEA0E94461485ED0E9446147A
:1038700080E80E94461488EA0E9446148FE30E9462
:10388000461483ED0E94461480E00E94461480E4B2
:103890000E9446148DE80E94461484E10E9446145A
:1038A00080E20E94461480E00E94461481EA0E9451
:1038B000461488EC0E9446148AED0E94461482E168
:1038C0000E94461481E80E9446148FEC0E94461420
:1038D00089ED0E94461481EF0E9446148BED0E94F0
:1038E000461480E40E94461484EA0E94461486EA44
:1038F0000E9446140E94B6148EE20E94461480E292
:103900000E94461480E00E944614E2ECF0E0F0933E
:103910009303E0939203E491E093950381EA0E947C
:10392000461488EC0E9446148AED0E94461482E1F7
:103930000E9446146624639492E3592E29E1722E64
:1039400036E0832E912C68EC70E080E090E00E94DD
:1039500033121092A3021092A202D12CC12CB12CCE
:10396000A12C10E000E0F12C8091A2029091A30222
:10397000892B09F0DCC38FEFC81AD80A80E10E94B6
:103980008611EC019093A1028093A002FF2021F008
:103990000A151B0509F4B5C00E94B61484EB9BE020
:1039A0000330110509F4A4C00CF092C084EF93E138
:1039B0000130110509F49CC084EF97E10230110534
:1039C00009F496C084EF9BE193C04FEC57E060E0B0
:1039D00070E0B3CE8CE396E00197F1F7E7CE780183
:1039E000D394F6CE809182020E9486118A159B059F
:1039F00009F4FACEC7FC11C0882031F0000F111F66
:103A00008EE1891508F401608FE1C81641F38FE358
:103A1000C81203C0E80110E000E080E5D812E0CF52
:103A20006F2D7727CD2EDD248C2F8E0D860F8C0DDC
:103A30008017110619F082E090E0E0CE80918302B9
:103A4000909184020197F1F490E080E00E94DF20E1
:103A500060937E0270937F02809380029093810234
:103A6000B60190E080E00E94DF2060937A027093BC
:103A70007B0280937C0290937D02109286021092CA
:103A80008502C0CEB70190E080E00E94DF202DECDF
:103A90003CEC4CEC5DE30E941C2160937E02709331
:103AA0007F028093800290938102D7FF04C0DF776A
:103AB000D195C195D109BE01DD0F880B990B0E94EC
:103AC000E1202DEC3CEC4CEC5DE30E941C21CDCFC1
:103AD00084EB9FE00530110559F08CEB97E0053041
:103AE000110534F08CEB93E00630110509F06ACF34
:103AF0000E94E31468EC70E080E090E00E943312D2
:103B00005801219709F000C364E670E080E090E07E
:103B10000E943312F12CE12CC0E08091A20290911E
:103B2000A30205970CF03AC28FEFE81AF80A84EF67
:103B3000E81681E0F8060CF4A6C19092A3028092E8
:103B4000A20280E10E9486119093A1028093A002BC
:103B5000019791F4C091A202D091A30264E670E0B3
:103B600080E090E00E9433122196D093A302C0938C
:103B7000A202F12CE12CC0E08091A2029091A3025C
:103B80008130910509F086C1C1111FC00E94B61491
:103B900080E00E945F148CE591E00E94D01481E0E7
:103BA0000E945F1484E691E00E94D01482E00E949B
:103BB0005F1488E791E00E94D01483E00E945F14B4
:103BC0008CE891E00E94D014C1E08091A202909113
:103BD000A302039709F083C08091A503893210F0F6
:103BE0007092A503C11138C06091A60390E080E0F7
:103BF0000E94AA180E94B61480E00E945F1485EB10
:103C000091E00E94D01481E00E945F148FEB91E05C
:103C10000E94D01482E00E945F148CE291E00E9426
:103C2000D01483E00E945F148AEE91E00E94D014C9
:103C300084E00E945F148091A5034AE06BE872E083
:103C400090E00E94AA200E94D01485E00E945F1498
:103C500088EC91E00E94D01481E10E9486110197C6
:103C6000E1F468EC70E080E090E00E943312809113
:103C7000A503883218F48F5F8093A50384E00E9427
:103C80005F148091A5034AE06BE872E090E00E9427
:103C9000AA200E94D014F12CE12C8FE00E94861102
:103CA0000197E1F468EC70E080E090E00E9433124C
:103CB0008091A503882319F081508093A50384E0A7
:103CC0000E945F148091A5034AE06BE872E090E0E7
:103CD0000E94AA200E94D014F12CE12CC1E0809116
:103CE000A2029091A302049709F083C08091A403DB
:103CF000843610F05092A403C11138C06091A5031E
:103D000081E090E00E94AA180E94B61480E00E9410
:103D10005F148BEC91E00E94D01481E00E945F144C
:103D200085ED91E00E94D01482E00E945F148CE245
:103D300091E00E94D01483E00E945F148AEE91E02B
:103D40000E94D01484E00E945F148091A4034AE092
:103D50006BE872E090E00E94AA200E94D01485E0F7
:103D60000E945F148FED91E00E94D01481E10E94C7
:103D700086110197E1F468EC70E080E090E00E9429
:103D800033128091A403833618F48F5F8093A403C9
:103D900084E00E945F148091A4034AE06BE872E023
:103DA00090E00E94AA200E94D014F12CE12C8FE018
:103DB0000E9486110197E1F468EC70E080E090E0E9
:103DC0000E9433128091A4038F3118F081508093A8
:103DD000A40384E00E945F148091A4034AE06BE88E
:103DE00072E090E00E94AA200E94D014F12CE12CF5
:103DF000C1E08091A2029091A302059709F08DCEB7
:103E0000C11106C06091A40382E090E00E94AA184C
:103E10000E94B61482EE91E00E94D0148DEE91E0E3
:103E20000E94D01488EF91E00E94D01482EE91E0BD
:103E30000E94D0146CEB72E080E090E00E9433129C
:103E40000E94B61482EE91E00E94D0148DEE91E0B3
:103E50000E94D01488EF91E00E94D01482EE91E08D
:103E60000E94D0146CEB72E080E090E00E9433126C
:103E70008091A2029091A30201969093A302809355
:103E8000A202C1E04ACE6AE070E080E090E00E94C9
:103E9000331257CE029709F098CE8091A603833350
:103EA00010F07092A603C11135C00E94B61480E0D4
:103EB0000E945F148FE991E00E94D01481E00E947B
:103EC0005F1482E00E945F1489EA91E00E94D0149E
:103ED00083E00E945F148CE291E00E94D01484E0A1
:103EE0000E945F148AEE91E00E94D01485E00E9447
:103EF0005F148091A6034AE06BE872E090E00E94B4
:103F0000AA200E94D01486E00E945F1488EC91E001
:103F10000E94D01481E10E9486110197E1F468ECBF
:103F200070E080E090E00E9433128091A60382331B
:103F300018F48F5F8093A60385E00E945F14809140
:103F4000A6034AE06BE872E090E00E94AA200E947B
:103F5000D014F12CE12C8FE00E948611019709F01A
:103F600033CE68EC70E080E090E00E9433128091E4
:103F7000A603882319F081508093A60385E00E9450
:103F80005F148091A6034AE06BE872E090E00E9423
:103F9000AA200E94D014F12CE12C16CE1092A3027C
:103FA0001092A202F12C81E10E948611892B09F462
:103FB000DBCC8FE00E948611892B09F4D5CC0E94BE
:103FC0001B15D0919D02D65FC0919C028AE0F82E0D
:103FD000FC0E6F2D70E090E080E04AE00E94BE157C
:103FE0008AE291E00E949C156F2D90E080E00E9493
:103FF000AA1866EF6C0F81E090E00E94AA186D2F5E
:1040000082E090E00E94AA1890E080E00E94AC1844
:104010008093A60381E090E00E94AC188093A503F2
:1040200082E090E00E94AC188093A4030E94B61432
:1040300084EF9BE10E94E31464EF71E080E090E084
:104040000E9433120E94B61484EF97E10E94E31499
:1040500064EF71E080E090E00E9433120E94B61499
:1040600084EF93E10E94E31464EF71E080E090E05C
:104070000E9433120E94B61484EB9FE00E94E31466
:1040800064EF71E080E090E00E9433120E94B61469
:1040900084EB9BE00E94E31464EF71E080E090E029
:1040A0000E9433120E94B6148CEB97E00E94E31436
:1040B00064EF71E080E090E00E9433120E94B61439
:1040C0008CEB93E00E94E31464EF71E080E090E0F9
:1040D0000E94331260929B0264EF71E080E090E0F6
:1040E0000E9433120E94F01680919E0290919F02CE
:1040F000019690939F0280939E0268EE73E080E0A9
:1041000090E00E9433122FCC84E6C816D10444F00C
:104110000E94F0168C01D12CC12CFF24F39443CFC4
:104120006AE070E080E090E00E943312F6CF64E62F
:1041300070E080E090E00E94331280E090E0892BF4
:1041400009F401CC0E94BA10882309F4FCCB0E9428
:104150000000F9CBBB274A3031F4992322F4BDE2A9
:10416000909581959F4F0C94B620BB27FB01552756
:10417000AA27880F991FAA1FA41710F0A41B8395C4
:104180005051B9F7A05DAA3308F0A95DA19300973B
:1041900079F7B111B1931192CB010C94CF20DC01CE
:1041A000FC01672F71917723E1F7329704C07C916E
:1041B0006D9370836291AE17BF07C8F30895E894BA
:1041C00009C097FB3EF490958095709561957F4F5F
:1041D0008F4F9F4F9923A9F0F92F96E9BB2793950D
:1041E000F695879577956795B795F111F8CFFAF41D
:1041F000BB0F11F460FF1BC06F5F7F4F8F4F9F4F4E
:1042000016C0882311F096E911C0772321F09EE8AB
:10421000872F762F05C0662371F096E8862F70E011
:1042200060E02AF09A95660F771F881FDAF7880FEB
:104230009695879597F908950E942F210C94A021B7
:104240000E94922138F00E94992120F0952311F0CC
:104250000C9489210C948F2111240C94D4210E9458
:10426000B12170F3959FC1F3950F50E0551F629FE8
:10427000F001729FBB27F00DB11D639FAA27F00DBF
:10428000B11DAA1F649F6627B00DA11D661F829FE6
:104290002227B00DA11D621F739FB00DA11D621FCB
:1042A000839FA00D611D221F749F3327A00D611DE8
:1042B000231F849F600D211D822F762F6A2F1124CA
:1042C0009F5750409AF0F1F088234AF0EE0FFF1FFD
:1042D000BB1F661F771F881F91505040A9F79E3F54
:1042E000510580F00C9489210C94D4215F3FE4F3B4
:1042F000983ED4F3869577956795B795F795E795AA
:104300009F5FC1F7FE2B880F911D9695879597F9B2
:10431000089597F99F6780E870E060E008959FEF47
:1043200080EC089500240A9416161706180609064C
:10433000089500240A94121613061406050608951B
:10434000092E0394000C11F4882352F0BB0F40F4A3
:10435000BF2B11F460FF04C06F5F7F4F8F4F9F4FE3
:10436000089557FD9058440F551F59F05F3F71F065
:104370004795880F97FB991F61F09F3F79F08795CC
:104380000895121613061406551FF2CF4695F1DF55
:1043900008C0161617061806991FF1CF86957105E5
:1043A000610508940895E894BB2766277727CB0119
:1043B00097F90895F999FECF92BD81BDF89A992792
:1043C00080B50895262FF999FECF1FBA92BD81BD01
:1043D00020BD0FB6F894FA9AF99A0FBE0196089587
:1043E0002F923F924F925F926F927F928F929F9205
:1043F000AF92BF92CF92DF92EF92FF920F931F93F3
:10440000CF93DF93CDB7DEB7CA1BDB0B0FB6F894A3
:10441000DEBF0FBECDBF09942A88398848885F84E3
:104420006E847D848C849B84AA84B984C884DF8054
:10443000EE80FD800C811B81AA81B981CE0FD11D38
:104440000FB6F894DEBF0FBECDBFED010895A1E217
:104450001A2EAA1BBB1BFD010DC0AA1FBB1FEE1FFE
:10446000FF1FA217B307E407F50720F0A21BB30B49
:10447000E40BF50B661F771F881F991F1A9469F7C5
:1044800060957095809590959B01AC01BD01CF0121
:104490000895EE0FFF1F0590F491E02D09940F93FE
:1044A0001F93CF93DF938230910510F482E090E068
:1044B000E091A903F091AA0330E020E0B0E0A0E091
:1044C000309799F42115310509F44AC0281B390B9E
:1044D00024303105D8F58A819B816115710589F1F8
:1044E000FB0193838283FE0111C0408151810281CF
:1044F000138148175907E0F04817590799F41097A6
:1045000061F012960C93129713961C933296CF017A
:10451000DF91CF911F910F9108950093A9031093FC
:10452000AA03F4CF2115310551F04217530738F093
:10453000A901DB019A01BD01DF01F801C1CFEF0143
:10454000F9CF9093AA038093A903CDCFFE01E20F88
:10455000F31F819391932250310939832883D7CF58
:104560002091A7033091A803232B41F4209102014D
:10457000309103013093A8032093A70320910001F9
:10458000309101012115310541F42DB73EB740911D
:10459000040150910501241B350BE091A703F09114
:1045A000A803E217F307A0F42E1B3F0B28173907C7
:1045B00078F0AC014E5F5F4F2417350748F04E0F7F
:1045C0005F1F5093A8034093A703819391939FCFBC
:1045D000F0E0E0E09CCFCF93DF930097E9F0FC019F
:1045E000329713821282A091A903B091AA03ED0120
:1045F00030E020E01097A1F420813181820F931FD9
:104600002091A7033091A8032817390709F061C04A
:10461000F093A803E093A703DF91CF910895EA01F7
:10462000CE17DF07E8F54A815B819E0141155105F0
:10463000B1F7E901FB83EA8349915991C40FD51F72
:10464000EC17FD0761F4808191810296840F951F1C
:10465000E90199838883828193819B838A83F0E037
:10466000E0E012968D919C9113970097B9F52D91EA
:104670003C911197CD010296820F931F2091A703C1
:104680003091A8032817390739F6309751F5109261
:10469000AA031092A903B093A803A093A703BCCFC9
:1046A000D383C28340815181840F951FC817D907D6
:1046B00061F44E5F5F4F88819981480F591F518384
:1046C00040838A819B81938382832115310509F080
:1046D000B0CFF093AA03E093A9039ECFFD01DC01C4
:1046E000C0CF13821282D7CFB0E0A0E0EAE7F3E2B6
:1046F0000C94F2218C01009751F4CB010E944F22BF
:104700008C01C801CDB7DEB7E0E10C940E22FC01AC
:10471000E60FF71F9C0122503109E217F30708F456
:104720009DC0D901CD91DC911197C617D70798F09C
:10473000C530D10530F3CE0104978617970708F3EB
:10474000C61BD70B2297C193D1936D937C93CF0156
:104750000E94EB22D6CF5B01AC1ABD0A4C018C0E35
:104760009D1EA091A903B091AA03512C412CF12CBC
:10477000E12C109731F58091A7039091A80388153B
:10478000990509F05CC04616570608F058C080919C
:10479000000190910101009741F48DB79EB74091BF
:1047A000040150910501841B950BE817F90708F0E7
:1047B00055C0F093A803E093A703F90171836083C8
:1047C000A0CF8D919C91119712966C901297139691
:1047D0007C901397A815B90559F56C0142E0C40EF9
:1047E000D11CCA14DB0420F1AC014A195B09DA01BF
:1047F0001296159780F06282738251834083D901AB
:104800006D937C93E114F10471F0D7011396FC933E
:10481000EE93129776CF22968C0F9D1FF90191830C
:104820008083F301EFCFF093AA03E093A90369CF4C
:104830004816590608F42C017D01D3019ACFCB010B
:104840000E944F227C01009749F0AE01B8010E94FE
:104850003124C8010E94EB22870153CF10E000E011
:1048600050CFFB01DC0102C001900D92415050403D
:10487000D8F70895FB01DC0101900D920020E1F7CB
:064880000895F894FFCF3B
:104886000000AB03800000000000F01050107D1007
:104896003D11AE108C10A010000000001714EA1392
:1048A6001815B213E313C213B3130D0A0056656E3F
:1048B600745374617475733A2000484541544F4EE1
:1048C6000056454E544F4E00484541544F4646000B
:1048D600483A200025200020543A20005345542011
:1048E60055503A004D656E7520666F72207365747B
:1048F60074696E67207570006D61782E20616E6434
:10490600206D696E2E2074656D702E00616E6420B8
:104916006D61782E2068756D69646974792E004D15
:1049260041582E54454D503A0020202030202D204D
:1049360035302043004D494E2E54454D503A002007
:10494600202030202D2034302043004D41582E2089
:1049560048554D3A002020203330202D203939206B
:104966002500202020202020202020200020534524
:104976005454494E47532000202053415645442164
:0449860020200000ED
:00000001FF
